:020000040000FA
:100000000C9456000C947E000C947E000C947E00A0
:100010000C947E000C947E000C947E000C947E0068
:100020000C947E000C947E000C947E000C947E0058
:100030000C947E000C947E000C947E000C947E0048
:100040000C9410030C947E000C9480030C945A03BF
:100050000C947E000C947E000C947E000C947E0028
:100060000C947E000C947E00000000002500280007
:100070002B0000000000240027002A0004040404D0
:100080000404040402020202020203030303030342
:10009000020203010204081020408001020408103B
:1000A000200102040810204080402A0611241FBEAF
:1000B000CFEFD8E0DEBFCDBF11E0A0E0B1E0EAE7CE
:1000C000F1E102C005900D92A434B107D9F722E006
:1000D000A4E4B1E001C01D92AA30B207E1F710E03C
:1000E000C6E5D0E004C02197FE010E94B508C535E1
:1000F000D107C9F70E94B2030C94BB080C9400000E
:10010000CF93DF9390E0FC01ED56FF4F249184588C
:100110009F4FFC0184918823D1F090E0880F991FB4
:10012000FC01EE58FF4FA591B491FC01E859FF4F37
:10013000C591D49161110EC09FB7F8948C91E22FB4
:10014000E0958E238C932881E223E8839FBFDF9183
:10015000CF9108958FB7F894EC91E22BEC938FBF79
:10016000F6CF3FB7F8948091690190916A01A09110
:100170006B01B0916C0126B5A89B05C02F3F19F00B
:100180000196A11DB11D3FBFBA2FA92F982F882717
:10019000BC01CD01620F711D811D911D42E0660FF2
:1001A000771F881F991F4A95D1F70895AF92BF9284
:1001B000CF92DF92EF92FF920F931F93CF93DF9333
:1001C0006C017B018B01040F151FEB015E01AE1862
:1001D000BF08C017D10759F06991D601ED91FC9184
:1001E0000190F081E02DC6010995892B79F7C501B1
:1001F000DF91CF911F910F91FF90EF90DF90CF9003
:10020000BF90AF900895FC01538D448D252F30E0B1
:10021000842F90E0821B930B541710F0CF96089513
:1002200001970895FC01918D828D981761F0A28D40
:10023000AE0FBF2FB11D5D968C91928D9F5F9F7306
:10024000928F90E008958FEF9FEF0895FC01918DBC
:10025000828D981731F0828DE80FF11D858D90E029
:1002600008958FEF9FEF0895FC01918D228D892FC6
:1002700090E0805C9F4F821B91098F7399270895AE
:100280008DE691E00E94340121E0892B09F420E001
:10029000822F089580E090E0892B29F00E94400190
:1002A00081110C9400000895FC01A48DA80FB92FB2
:1002B000B11DA35ABF4F2C91848D90E001968F738E
:1002C0009927848FA689B7892C93A089B1898C91AD
:1002D000837080648C93938D848D981306C00288FC
:1002E000F389E02D80818F7D80830895EF92FF92C6
:1002F0000F931F93CF93DF93EC0181E0888F9B8D49
:100300008C8D98131AC0E889F989808185FF15C002
:100310009FB7F894EE89FF896083E889F989808125
:100320008370806480839FBF81E090E0DF91CF91F4
:100330001F910F91FF90EF900895F62E0B8D10E016
:100340000F5F1F4F0F731127E02E8C8D8E110CC085
:100350000FB607FCFACFE889F989808185FFF5CFD0
:10036000CE010E945401F1CFEB8DEC0FFD2FF11D5A
:10037000E35AFF4FF0829FB7F8940B8FEA89FB890D
:1003800080818062CFCFCF93DF93EC01888D88236B
:10039000B9F0AA89BB89E889F9898C9185FD03C0E8
:1003A000808186FD0DC00FB607FCF7CF8C9185FFCD
:1003B000F2CF808185FFEDCFCE010E945401E9CFBD
:1003C000DF91CF910895FC0101900020E9F731976A
:1003D000AF01481B590BBC018DE691E00C94D6008F
:1003E0008F929F92AF92BF920F931F93CF93DF9301
:1003F000CDB7DEB7A1970FB6F894DEBF0FBECDBF65
:1004000019A2423008F44AE08E010F5D1F4F842E7E
:10041000912CB12CA12CA50194010E949308E62FE8
:10042000B901CA01EA30F4F4E05DD801EE938D0120
:10043000232B242B252B79F790E080E0109719F0DF
:10044000CD010E94E301A1960FB6F894DEBF0FBE66
:10045000CDBFDF91CF911F910F91BF90AF909F9033
:100460008F900895E95CE1CF4F925F926F927F92F7
:100470008F929F92AF92BF92CF92DF92EF92FF92B4
:100480000F931F93CF936B017C01742EAC019B01E2
:100490000E948E08882399F086E191E0CF911F9108
:1004A0000F91FF90EF90DF90CF90BF90AF909F9013
:1004B0008F907F906F905F904F900C94E301460176
:1004C0005701E894B7F82FEF3FEF4FE75FE7C5011B
:1004D000B4010E948E0881110DC02FEF3FEF4FE74E
:1004E0005FE7C501B4010E94C40618161CF48AE136
:1004F00091E0D4CF2FEF3FEF4FE75FE4C701B601A4
:100500000E941C0818161CF48EE191E0C7CF2FEF53
:100510003FEF4FE75FECC701B6010E94C40687FDBD
:10052000F3CF20E030E0A901C701B6010E94C40664
:1005300010E000E087FF0AC06DE28DE691E00E94C6
:1005400076018C01F7FAF094F7F8F094C0E060E0DF
:1005500070E080E09FE37C1641F020E030E040E274
:1005600051E40E94C906CF5FF6CFA70196010E9411
:1005700058062B013C010E943B074B015C014AE0FD
:100580000E94F0017C01E00EF11ECC23C1F1C501F7
:10059000B4010E946A079B01AC01C301B2010E9431
:1005A00057064B015C016EE28DE691E00E947601F8
:1005B000E80EF91EC15018F120E030E040E251E4AD
:1005C000C501B4010E9421082B013C010E943B0798
:1005D0004B01B12CA12C4AE0C501B4010E94F001ED
:1005E000E80EF91EC501B4010E946A079B01AC0127
:1005F000C301B2010E9457064B015C01DBCFC7016A
:10060000CF911F910F91FF90EF90DF90CF90BF900F
:10061000AF909F908F907F906F905F904F900895D4
:100620001F920F920FB60F9211242F933F938F9327
:100630009F93AF93BF938091650190916601A091C4
:100640006701B09168013091640123E0230F2D37D9
:1006500068F126E8230F0296A11DB11D20936401C5
:100660008093650190936601A0936701B093680140
:100670008091690190916A01A0916B01B0916C0128
:100680000196A11DB11D8093690190936A01A09309
:100690006B01B0936C01BF91AF919F918F913F918E
:1006A0002F910F900FBE0F901F9018950196A11DCE
:1006B000B11DD4CF1F920F920FB60F9211242F931A
:1006C0003F934F935F936F937F938F939F93AF93DA
:1006D000BF93EF93FF938DE691E00E945401FF9149
:1006E000EF91BF91AF919F918F917F916F915F91AA
:1006F0004F913F912F910F900FBE0F901F90189523
:100700001F920F920FB60F9211242F938F939F93E6
:10071000EF93FF93E0917D01F0917E018081E09164
:100720008301F091840182FD1BC09081809186013C
:100730008F5F8F7320918701821741F0E0918601CE
:10074000F0E0E359FE4F958F80938601FF91EF9182
:100750009F918F912F910F900FBE0F901F90189522
:100760008081F4CFCF93DF9300D000D0CDB7DEB738
:10077000789484B5836084BD85B5836085BD8091A0
:100780006E00816080936E0022E020938100809152
:1007900081008160809381008091800081608093DE
:1007A00080008091B10084608093B1008091B0009E
:1007B00081608093B00087E880937A001092C10036
:1007C00061E08AE00E94800060E08FE00E9480008B
:1007D00060E08EE00E948000F89482E280938000C6
:1007E00089E18093810080EA90E090938700809374
:1007F0008600609186007091870090E080E00E9402
:100800006A072AE939E949E15FE30E9421080E9469
:100810003B0770938B0060938A0078940E94B1002C
:100820006093500170935101809352019093530152
:100830002FB7F8948091650190916601A0916701AE
:10084000B09168012FBF8093600190936101A093E4
:100850006201B09363012FB7F89480916501909184
:100860006601A0916701B09168012FBF8093540188
:1008700090935501A0935601B0935701E0917D01EB
:10088000F0917E0132E03083E0917901F0917A01BC
:100890001082E0917B01F0917C018FEC80831092BB
:1008A0008501E0918101F091820186E08083E091F1
:1008B0007F01F0918001808188698083E0917F01D0
:1008C000F091800180818F7D808300E411E40E949B
:1008D000B1004B015C01609186007091870090E04F
:1008E00080E00E946A07209100013091010140914F
:1008F0000201509103010E9421080E943B0770935E
:100900008B0060938A008091600190916101A091B9
:100910006201B0916301A5019401281B390B4A0BB8
:100920005B0BDA01C9010A97A105B10508F45AC0A9
:1009300000937C0080917A00806480937A0080919B
:100940007A0086FDFCCF6091780070917900072EC7
:10095000000C880B990B0E946C0720E030E040E30C
:1009600051E40E94210820E030E04BE453E40E946F
:10097000C90660935C0170935D0180935E01909362
:100980005F0110937C0080917A00806480937A00EC
:1009900080917A0086FDFCCF60917800709179009B
:1009A000072E000C880B990B0E946C0720E030E0AA
:1009B00040E351E40E94210820E030E04BE453E49E
:1009C0000E94C906609358017093590180935A019F
:1009D00090935B018092600190926101A09262010C
:1009E000B09263018091540190915501A0915601FC
:1009F000B0915701A5019401281B390B4A0B5B0BE1
:100A0000DA01C9010A97A105B10508F409C10E94DC
:100A1000B1006B017C018091500190915101A09136
:100A20005201B0915301A7019601281B390B4A0BC3
:100A30005B0BCA01B9010E946A0720E034E244E777
:100A400059E40E94C9062B013C01C0925001D0928A
:100A50005101E0925201F092530120E030E040E871
:100A60005FE3609158017091590180915A01909112
:100A70005B010E94580620915C0130915D0140911C
:100A80005E0150915F010E9457066B017C01C0928C
:100A90004C01D0924D01E0924E01F0924F01AC0119
:100AA0009B01C301B2010E942108209148013091AD
:100AB000490140914A0150914B010E9458066983B7
:100AC0007A838B839C836093480170934901809360
:100AD0004A0190934B01209144013091450140918E
:100AE000460150914701C701B6010E945706A30174
:100AF00092010E94C90620E030E0A9010E9421086D
:100B00002B013C012FE832EC45EF5CE3C701B60155
:100B10000E9421082AE939E949E15FE30E94580669
:100B20006B017C012DEC3CEC4CE45DE369817A8146
:100B30008B819C810E9421089B01AC01C701B601F9
:100B40000E9458069B01AC01C301B2010E945806E5
:100B50006B017C0120E030E040E85FE30E941C086C
:100B600018160CF46AC0C0920001D0920101E09204
:100B70000201F092030120E030E0A9016091000140
:100B80007091010180910201909103010E94C406BD
:100B900087FF08C01092000110920101109202011B
:100BA0001092030182E291E00E94E3016091000152
:100BB00070910101809102019091030142E00E9435
:100BC00034028FE291E00E94E30182E391E00E940F
:100BD000E30160915C0170915D0180915E019091F3
:100BE0005F0142E00E9434028FE291E00E94E30143
:100BF00080914C0190914D01A0914E01B0914F0117
:100C00008093440190934501A0934601B09347011E
:100C10008092540190925501A0925601B0925701D2
:100C200040E050E0452B09F452CE0E944001882359
:100C300009F44DCE0E9400004ACE80E090E0A0E88A
:100C4000BFE38093000190930101A0930201B09350
:100C5000030191CFEDE6F1E01382128288EE93E07A
:100C6000A0E0B0E084839583A683B78388E091E019
:100C70009183808385EC90E09587848784EC90E075
:100C80009787868780EC90E0918B808B81EC90E059
:100C9000938B828B82EC90E0958B848B86EC90E03A
:100CA000978B868B118E128E138E148E089550584A
:100CB000BB27AA270E946F060C94E2070E94D40764
:100CC00038F00E94DB0720F039F49F3F19F426F436
:100CD0000C94D1070EF4E095E7FB0C94CB07E92FB9
:100CE0000E94F30758F3BA17620773078407950742
:100CF00020F079F4A6F50C9415080EF4E0950B2E6F
:100D0000BA2FA02D0B01B90190010C01CA01A0015D
:100D10001124FF27591B99F0593F50F4503E68F1B8
:100D20001A16F040A22F232F342F4427585FF3CFF9
:100D3000469537952795A795F0405395C9F77EF4CA
:100D40001F16BA0B620B730B840BBAF09150A1F013
:100D5000FF0FBB1F661F771F881FC2F70EC0BA0F99
:100D6000621F731F841F48F4879577956795B79521
:100D7000F7959E3F08F0B0CF9395880F08F099271C
:100D8000EE0F9795879508950E94A70708F481E0D4
:100D900008950E94DD060C94E2070E94DB0758F0DC
:100DA0000E94D40740F029F45F3F29F00C94CB0750
:100DB00051110C9416080C94D1070E94F30768F3A4
:100DC0009923B1F3552391F3951B550BBB27AA2704
:100DD00062177307840738F09F5F5F4F220F331F3E
:100DE000441FAA1FA9F335D00E2E3AF0E0E832D006
:100DF00091505040E695001CCAF72BD0FE2F29D009
:100E0000660F771F881FBB1F261737074807AB07DA
:100E1000B0E809F0BB0B802DBF01FF2793585F4F4F
:100E20003AF09E3F510578F00C94CB070C941608CD
:100E30005F3FE4F3983ED4F3869577956795B79531
:100E4000F7959F5FC9F7880F911D9695879597F93C
:100E50000895E1E0660F771F881FBB1F62177307B5
:100E60008407BA0720F0621B730B840BBA0BEE1FCA
:100E700088F7E09508950E94FB0788F09F5798F047
:100E8000B92F9927B751B0F0E1F0660F771F881F8F
:100E9000991F1AF0BA95C9F714C0B13091F00E94A9
:100EA0001508B1E008950C941508672F782F88274E
:100EB000B85F39F0B93FCCF3869577956795B395D0
:100EC000D9F73EF490958095709561957F4F8F4F3F
:100ED0009F4F0895E89409C097FB3EF49095809544
:100EE000709561957F4F8F4F9F4F9923A9F0F92FF0
:100EF00096E9BB279395F695879577956795B7956E
:100F0000F111F8CFFAF4BB0F11F460FF1BC06F5F53
:100F10007F4F8F4F9F4F16C0882311F096E911C065
:100F2000772321F09EE8872F762F05C0662371F086
:100F300096E8862F70E060E02AF09A95660F771F9A
:100F4000881FDAF7880F9695879597F90895990F76
:100F50000008550FAA0BE0E8FEEF16161706E80783
:100F6000F907C0F012161306E407F50798F0621BA4
:100F7000730B840B950B39F40A2661F0232B242B79
:100F8000252B21F408950A2609F4A140A6958FEF98
:100F9000811D811D089597F99F6780E870E060E0EA
:100FA00008959FEF80EC089500240A941616170602
:100FB00018060906089500240A941216130614064A
:100FC00005060895092E0394000C11F4882352F0AD
:100FD000BB0F40F4BF2B11F460FF04C06F5F7F4F65
:100FE0008F4F9F4F089557FD9058440F551F59F04C
:100FF0005F3F71F04795880F97FB991F61F09F3F06
:1010000079F087950895121613061406551FF2CF2E
:101010004695F1DF08C0161617061806991FF1CF7E
:1010200086957105610508940895E894BB276627A5
:101030007727CB0197F908950E94A70708F48FEF4F
:1010400008950E9434080C94E2070E94D40738F0F7
:101050000E94DB0720F0952311F00C94CB070C9431
:10106000D10711240C9416080E94F30770F3959F82
:10107000C1F3950F50E0551F629FF001729FBB278F
:10108000F00DB11D639FAA27F00DB11DAA1F649F2B
:101090006627B00DA11D661F829F2227B00DA11DDE
:1010A000621F739FB00DA11D621F839FA00D611D64
:1010B000221F749F3327A00D611D231F849F600D85
:1010C000211D822F762F6A2F11249F5750409AF0AE
:1010D000F1F088234AF0EE0FFF1FBB1F661F771F3A
:1010E000881F91505040A9F79E3F510580F00C9405
:1010F000CB070C9416085F3FE4F3983ED4F3869533
:1011000077956795B795F795E7959F5FC1F7FE2BA4
:10111000880F911D9695879597F908950E94A707C6
:10112000880B990B0895A1E21A2EAA1BBB1BFD0187
:101130000DC0AA1FBB1FEE1FFF1FA217B307E407B6
:10114000F50720F0A21BB30BE40BF50B661F771F0E
:10115000881F991F1A9469F76095709580959095EE
:101160009B01AC01BD01CF010895EE0FFF1F05905B
:10117000F491E02D0994F894FFCF9A99193F00005B
:1011800000007601D6000301C301340112012601DB
:101190006E616E00696E66006F76660044757479E4
:1011A000204379636C653A20000D0A004F75747016
:0E11B000757420566F6C746167653A200000FC
:107E8000112424B614BE80E07ED021FEEBC08EE02B
:107E90007AD0E0ECF0E0AFE7BFEF4899FECF9096E4
:107EA000489BFDCFB4831197F1F7B2E0B083B8E1FE
:107EB000B18357D0C82F823559F46BD0E0E8FEE784
:107EC000E058F109A89583E089D03097C9F73FC001
:107ED0008D7FF1F453D0D82FA0E0B1E042D08D9344
:107EE000DA13FCCF56D0C1110FC0A0E0B1E0F99970
:107EF000FECF1FBAF2BDE1BD8D9180BDFA9AF99A0D
:107F00003196DA13F4CF23C0A0E0B1E04CD01FC00B
:107F1000C33041F433D0C82F3CD085911BD0C15021
:107F2000E1F715C0C13071F429D0C82F32D0F999CA
:107F3000FECFF2BDE1BDF89A80B50CD03196C150AC
:107F4000B1F705C0C13511F488E01DD022D087E714
:107F500001D0AFCF9091C00095FFFCCF8093C600B9
:107F600008952D9A259A8091C00087FFFCCF84FD4B
:107F700013C0A8958091C6002D980895F2DFE82FD0
:107F8000F0DFF82FEECF98E19093600080936000CF
:107F90000895E7DF803219F088E0F5DFFFCF80EA4F
:107FA000D9CFFB01DC0160E86A0F9F01E0388EE762
:107FB000F807C8F483E012D0309629F48FE38D934C
:107FC0008FEC8C93119781E00D901D9007D0329625
:107FD000A613FACFF90185E001D081E187BFE895CA
:0A7FE00007B600FCFDCF1124089540
:067FFA000319D2CFE73F9E
:00000001FF
